{
  "contractName": "Dex",
  "abi": [
    {
      "inputs": [],
      "stateMutability": "nonpayable",
      "type": "constructor"
    },
    {
      "anonymous": false,
      "inputs": [
        {
          "indexed": false,
          "internalType": "uint256",
          "name": "tradeId",
          "type": "uint256"
        },
        {
          "indexed": false,
          "internalType": "uint256",
          "name": "orderId",
          "type": "uint256"
        },
        {
          "indexed": true,
          "internalType": "bytes32",
          "name": "ticker",
          "type": "bytes32"
        },
        {
          "indexed": true,
          "internalType": "address",
          "name": "trader1",
          "type": "address"
        },
        {
          "indexed": true,
          "internalType": "address",
          "name": "trader2",
          "type": "address"
        },
        {
          "indexed": false,
          "internalType": "uint256",
          "name": "amount",
          "type": "uint256"
        },
        {
          "indexed": false,
          "internalType": "uint256",
          "name": "price",
          "type": "uint256"
        },
        {
          "indexed": false,
          "internalType": "uint256",
          "name": "date",
          "type": "uint256"
        }
      ],
      "name": "NewTrade",
      "type": "event"
    },
    {
      "inputs": [],
      "name": "admin",
      "outputs": [
        {
          "internalType": "address",
          "name": "",
          "type": "address"
        }
      ],
      "stateMutability": "view",
      "type": "function",
      "constant": true
    },
    {
      "inputs": [],
      "name": "nextOrderId",
      "outputs": [
        {
          "internalType": "uint256",
          "name": "",
          "type": "uint256"
        }
      ],
      "stateMutability": "view",
      "type": "function",
      "constant": true
    },
    {
      "inputs": [],
      "name": "nextTradeId",
      "outputs": [
        {
          "internalType": "uint256",
          "name": "",
          "type": "uint256"
        }
      ],
      "stateMutability": "view",
      "type": "function",
      "constant": true
    },
    {
      "inputs": [
        {
          "internalType": "bytes32",
          "name": "",
          "type": "bytes32"
        },
        {
          "internalType": "uint256",
          "name": "",
          "type": "uint256"
        },
        {
          "internalType": "uint256",
          "name": "",
          "type": "uint256"
        }
      ],
      "name": "orderBook",
      "outputs": [
        {
          "internalType": "uint256",
          "name": "id",
          "type": "uint256"
        },
        {
          "internalType": "address",
          "name": "trader",
          "type": "address"
        },
        {
          "internalType": "enum Dex.Side",
          "name": "side",
          "type": "uint8"
        },
        {
          "internalType": "bytes32",
          "name": "ticker",
          "type": "bytes32"
        },
        {
          "internalType": "uint256",
          "name": "amount",
          "type": "uint256"
        },
        {
          "internalType": "uint256",
          "name": "filled",
          "type": "uint256"
        },
        {
          "internalType": "uint256",
          "name": "price",
          "type": "uint256"
        },
        {
          "internalType": "uint256",
          "name": "date",
          "type": "uint256"
        }
      ],
      "stateMutability": "view",
      "type": "function",
      "constant": true
    },
    {
      "inputs": [
        {
          "internalType": "uint256",
          "name": "",
          "type": "uint256"
        }
      ],
      "name": "tokenList",
      "outputs": [
        {
          "internalType": "bytes32",
          "name": "ticker",
          "type": "bytes32"
        },
        {
          "internalType": "address",
          "name": "tokenAddress",
          "type": "address"
        }
      ],
      "stateMutability": "view",
      "type": "function",
      "constant": true
    },
    {
      "inputs": [
        {
          "internalType": "bytes32",
          "name": "",
          "type": "bytes32"
        }
      ],
      "name": "tokens",
      "outputs": [
        {
          "internalType": "bytes32",
          "name": "ticker",
          "type": "bytes32"
        },
        {
          "internalType": "address",
          "name": "tokenAddress",
          "type": "address"
        }
      ],
      "stateMutability": "view",
      "type": "function",
      "constant": true
    },
    {
      "inputs": [
        {
          "internalType": "address",
          "name": "",
          "type": "address"
        },
        {
          "internalType": "bytes32",
          "name": "",
          "type": "bytes32"
        }
      ],
      "name": "traderBalances",
      "outputs": [
        {
          "internalType": "uint256",
          "name": "",
          "type": "uint256"
        }
      ],
      "stateMutability": "view",
      "type": "function",
      "constant": true
    },
    {
      "inputs": [
        {
          "internalType": "bytes32",
          "name": "ticker",
          "type": "bytes32"
        },
        {
          "internalType": "enum Dex.Side",
          "name": "side",
          "type": "uint8"
        }
      ],
      "name": "getOrders",
      "outputs": [
        {
          "components": [
            {
              "internalType": "uint256",
              "name": "id",
              "type": "uint256"
            },
            {
              "internalType": "address",
              "name": "trader",
              "type": "address"
            },
            {
              "internalType": "enum Dex.Side",
              "name": "side",
              "type": "uint8"
            },
            {
              "internalType": "bytes32",
              "name": "ticker",
              "type": "bytes32"
            },
            {
              "internalType": "uint256",
              "name": "amount",
              "type": "uint256"
            },
            {
              "internalType": "uint256",
              "name": "filled",
              "type": "uint256"
            },
            {
              "internalType": "uint256",
              "name": "price",
              "type": "uint256"
            },
            {
              "internalType": "uint256",
              "name": "date",
              "type": "uint256"
            }
          ],
          "internalType": "struct Dex.Order[]",
          "name": "",
          "type": "tuple[]"
        }
      ],
      "stateMutability": "view",
      "type": "function",
      "constant": true
    },
    {
      "inputs": [],
      "name": "listTradeTokens",
      "outputs": [
        {
          "components": [
            {
              "internalType": "bytes32",
              "name": "ticker",
              "type": "bytes32"
            },
            {
              "internalType": "address",
              "name": "tokenAddress",
              "type": "address"
            }
          ],
          "internalType": "struct Dex.Token[]",
          "name": "",
          "type": "tuple[]"
        }
      ],
      "stateMutability": "view",
      "type": "function",
      "constant": true
    },
    {
      "inputs": [
        {
          "internalType": "bytes32",
          "name": "ticker",
          "type": "bytes32"
        },
        {
          "internalType": "address",
          "name": "tokenAddress",
          "type": "address"
        }
      ],
      "name": "addToken",
      "outputs": [],
      "stateMutability": "nonpayable",
      "type": "function"
    },
    {
      "inputs": [
        {
          "internalType": "uint256",
          "name": "amount",
          "type": "uint256"
        },
        {
          "internalType": "bytes32",
          "name": "ticker",
          "type": "bytes32"
        }
      ],
      "name": "depositTokens",
      "outputs": [],
      "stateMutability": "nonpayable",
      "type": "function"
    },
    {
      "inputs": [
        {
          "internalType": "bytes32",
          "name": "ticker",
          "type": "bytes32"
        },
        {
          "internalType": "uint256",
          "name": "amount",
          "type": "uint256"
        }
      ],
      "name": "withdrawToken",
      "outputs": [],
      "stateMutability": "nonpayable",
      "type": "function"
    },
    {
      "inputs": [
        {
          "internalType": "bytes32",
          "name": "ticker",
          "type": "bytes32"
        },
        {
          "internalType": "uint256",
          "name": "amount",
          "type": "uint256"
        },
        {
          "internalType": "uint256",
          "name": "price",
          "type": "uint256"
        },
        {
          "internalType": "enum Dex.Side",
          "name": "side",
          "type": "uint8"
        }
      ],
      "name": "createLimitOrder",
      "outputs": [],
      "stateMutability": "nonpayable",
      "type": "function"
    },
    {
      "inputs": [
        {
          "internalType": "bytes32",
          "name": "ticker",
          "type": "bytes32"
        },
        {
          "internalType": "uint256",
          "name": "amount",
          "type": "uint256"
        },
        {
          "internalType": "enum Dex.Side",
          "name": "side",
          "type": "uint8"
        }
      ],
      "name": "createMarketOrder",
      "outputs": [],
      "stateMutability": "nonpayable",
      "type": "function"
    }
  ],
  "bytecode": "0x608060405234801561001057600080fd5b5033600460006101000a81548173ffffffffffffffffffffffffffffffffffffffff021916908373ffffffffffffffffffffffffffffffffffffffff160217905550613478806100616000396000f3fe608060405234801561001057600080fd5b50600436106100ea5760003560e01c8063904194a31161008c578063af5f068f11610066578063af5f068f14610278578063d15b223e14610296578063d9c0c950146102b2578063f851a440146102ce576100ea565b8063904194a3146101fa5780639776aacf1461022b5780639ead722214610247576100ea565b806372ce957e116100c857806372ce957e146101745780637d6b4982146101a45780637f2c6246146101c0578063813ad083146101dc576100ea565b80630bb431b6146100ef5780632a58b3301461012657806346e9658b14610144575b600080fd5b61010960048036036101049190810190612999565b6102ec565b60405161011d989796959493929190613179565b60405180910390f35b61012e610388565b60405161013b919061315e565b60405180910390f35b61015e600480360361015991908101906128d2565b61038e565b60405161016b9190612fcf565b60405180910390f35b61018e60048036036101899190810190612808565b6104dd565b60405161019b919061315e565b60405180910390f35b6101be60048036036101b9919081019061290e565b610502565b005b6101da60048036036101d5919081019061294a565b6107ba565b005b6101e461186e565b6040516101f1919061315e565b60405180910390f35b610214600480360361020f919081019061286d565b611874565b604051610222929190613013565b60405180910390f35b61024560048036036102409190810190612896565b6118b8565b005b610261600480360361025c9190810190612a4b565b611a86565b60405161026f929190613013565b60405180910390f35b610280611ad7565b60405161028d9190612ff1565b60405180910390f35b6102b060048036036102ab9190810190612a74565b611b96565b005b6102cc60048036036102c791908101906129e8565b611dbd565b005b6102d66125a6565b6040516102e39190612f54565b60405180910390f35b6003602052826000526040600020602052816000526040600020818154811061031157fe5b906000526020600020906007020160009250925050508060000154908060010160009054906101000a900473ffffffffffffffffffffffffffffffffffffffff16908060010160149054906101000a900460ff16908060020154908060030154908060040154908060050154908060060154905088565b60055481565b60606003600084815260200190815260200160002060008360018111156103b157fe5b8152602001908152602001600020805480602002602001604051908101604052809291908181526020016000905b828210156104d1578382906000526020600020906007020160405180610100016040529081600082015481526020016001820160009054906101000a900473ffffffffffffffffffffffffffffffffffffffff1673ffffffffffffffffffffffffffffffffffffffff1673ffffffffffffffffffffffffffffffffffffffff1681526020016001820160149054906101000a900460ff16600181111561048157fe5b600181111561048c57fe5b815260200160028201548152602001600382015481526020016004820154815260200160058201548152602001600682015481525050815260200190600101906103df565b50505050905092915050565b6002602052816000526040600020602052806000526040600020600091509150505481565b81600073ffffffffffffffffffffffffffffffffffffffff1660008083815260200190815260200160002060010160009054906101000a900473ffffffffffffffffffffffffffffffffffffffff1673ffffffffffffffffffffffffffffffffffffffff1614156105a8576040517f08c379a000000000000000000000000000000000000000000000000000000000815260040161059f9061305e565b60405180910390fd5b81600260003373ffffffffffffffffffffffffffffffffffffffff1673ffffffffffffffffffffffffffffffffffffffff168152602001908152602001600020600085815260200190815260200160002054101561063b576040517f08c379a00000000000000000000000000000000000000000000000000000000081526004016106329061309e565b60405180910390fd5b61069e82600260003373ffffffffffffffffffffffffffffffffffffffff1673ffffffffffffffffffffffffffffffffffffffff1681526020019081526020016000206000868152602001908152602001600020546125cc90919063ffffffff16565b600260003373ffffffffffffffffffffffffffffffffffffffff1673ffffffffffffffffffffffffffffffffffffffff16815260200190815260200160002060008581526020019081526020016000208190555060008084815260200190815260200160002060010160009054906101000a900473ffffffffffffffffffffffffffffffffffffffff1673ffffffffffffffffffffffffffffffffffffffff1663a9059cbb33846040518363ffffffff1660e01b8152600401610762929190612fa6565b602060405180830381600087803b15801561077c57600080fd5b505af1158015610790573d6000803e3d6000fd5b505050506040513d601f19601f820116820180604052506107b49190810190612844565b50505050565b82600073ffffffffffffffffffffffffffffffffffffffff1660008083815260200190815260200160002060010160009054906101000a900473ffffffffffffffffffffffffffffffffffffffff1673ffffffffffffffffffffffffffffffffffffffff161415610860576040517f08c379a00000000000000000000000000000000000000000000000000000000081526004016108579061305e565b60405180910390fd5b837f44414900000000000000000000000000000000000000000000000000000000008114156108c4576040517f08c379a00000000000000000000000000000000000000000000000000000000081526004016108bb906130be565b60405180910390fd5b6001808111156108d057fe5b8360018111156108dc57fe5b14156109765783600260003373ffffffffffffffffffffffffffffffffffffffff1673ffffffffffffffffffffffffffffffffffffffff1681526020019081526020016000206000878152602001908152602001600020541015610975576040517f08c379a000000000000000000000000000000000000000000000000000000000815260040161096c9061313e565b60405180910390fd5b5b600060036000878152602001908152602001600020600080600181111561099957fe5b8660018111156109a557fe5b146109b15760006109b4565b60015b60018111156109bf57fe5b815260200190815260200160002090506000808690505b8280549050821080156109e95750600081115b1561163d576000610a3d8484815481106109ff57fe5b906000526020600020906007020160040154858581548110610a1d57fe5b9060005260206000209060070201600301546125cc90919063ffffffff16565b90506000818311610a4e5782610a50565b815b9050610a6581846125cc90919063ffffffff16565b9250610a9781868681548110610a7757fe5b90600052602060002090600702016004015461261690919063ffffffff16565b858581548110610aa357fe5b9060005260206000209060070201600401819055503373ffffffffffffffffffffffffffffffffffffffff16858581548110610adb57fe5b906000526020600020906007020160010160009054906101000a900473ffffffffffffffffffffffffffffffffffffffff1673ffffffffffffffffffffffffffffffffffffffff168b7fdb0c486e680ba8026643e6a85f8d157b5e7bcd4b32b54d564542570a9eb20416600654898981548110610b5457fe5b906000526020600020906007020160000154868b8b81548110610b7357fe5b90600052602060002090600702016005015442604051610b979594939291906131f7565b60405180910390a4600180811115610bab57fe5b886001811115610bb757fe5b141561106c57610c2081600260003373ffffffffffffffffffffffffffffffffffffffff1673ffffffffffffffffffffffffffffffffffffffff16815260200190815260200160002060008d8152602001908152602001600020546125cc90919063ffffffff16565b600260003373ffffffffffffffffffffffffffffffffffffffff1673ffffffffffffffffffffffffffffffffffffffff16815260200190815260200160002060008c815260200190815260200160002081905550610d26610ca7868681548110610c8657fe5b9060005260206000209060070201600501548361266b90919063ffffffff16565b600260003373ffffffffffffffffffffffffffffffffffffffff1673ffffffffffffffffffffffffffffffffffffffff16815260200190815260200160002060007f444149000000000000000000000000000000000000000000000000000000000081526020019081526020016000205461261690919063ffffffff16565b600260003373ffffffffffffffffffffffffffffffffffffffff1673ffffffffffffffffffffffffffffffffffffffff16815260200190815260200160002060007f4441490000000000000000000000000000000000000000000000000000000000815260200190815260200160002081905550610e3a8160026000888881548110610dae57fe5b906000526020600020906007020160010160009054906101000a900473ffffffffffffffffffffffffffffffffffffffff1673ffffffffffffffffffffffffffffffffffffffff1673ffffffffffffffffffffffffffffffffffffffff16815260200190815260200160002060008d81526020019081526020016000205461261690919063ffffffff16565b60026000878781548110610e4a57fe5b906000526020600020906007020160010160009054906101000a900473ffffffffffffffffffffffffffffffffffffffff1673ffffffffffffffffffffffffffffffffffffffff1673ffffffffffffffffffffffffffffffffffffffff16815260200190815260200160002060008c815260200190815260200160002081905550610fba610efe868681548110610edd57fe5b9060005260206000209060070201600501548361266b90919063ffffffff16565b60026000888881548110610f0e57fe5b906000526020600020906007020160010160009054906101000a900473ffffffffffffffffffffffffffffffffffffffff1673ffffffffffffffffffffffffffffffffffffffff1673ffffffffffffffffffffffffffffffffffffffff16815260200190815260200160002060007f44414900000000000000000000000000000000000000000000000000000000008152602001908152602001600020546125cc90919063ffffffff16565b60026000878781548110610fca57fe5b906000526020600020906007020160010160009054906101000a900473ffffffffffffffffffffffffffffffffffffffff1673ffffffffffffffffffffffffffffffffffffffff1673ffffffffffffffffffffffffffffffffffffffff16815260200190815260200160002060007f44414900000000000000000000000000000000000000000000000000000000008152602001908152602001600020819055505b6000600181111561107957fe5b88600181111561108557fe5b141561161c576110bb85858154811061109a57fe5b9060005260206000209060070201600501548261266b90919063ffffffff16565b600260003373ffffffffffffffffffffffffffffffffffffffff1673ffffffffffffffffffffffffffffffffffffffff16815260200190815260200160002060007f4441490000000000000000000000000000000000000000000000000000000000815260200190815260200160002054101561116d576040517f08c379a0000000000000000000000000000000000000000000000000000000008152600401611164906130fe565b60405180910390fd5b6111d081600260003373ffffffffffffffffffffffffffffffffffffffff1673ffffffffffffffffffffffffffffffffffffffff16815260200190815260200160002060008d81526020019081526020016000205461261690919063ffffffff16565b600260003373ffffffffffffffffffffffffffffffffffffffff1673ffffffffffffffffffffffffffffffffffffffff16815260200190815260200160002060008c8152602001908152602001600020819055506112d661125786868154811061123657fe5b9060005260206000209060070201600501548361266b90919063ffffffff16565b600260003373ffffffffffffffffffffffffffffffffffffffff1673ffffffffffffffffffffffffffffffffffffffff16815260200190815260200160002060007f44414900000000000000000000000000000000000000000000000000000000008152602001908152602001600020546125cc90919063ffffffff16565b600260003373ffffffffffffffffffffffffffffffffffffffff1673ffffffffffffffffffffffffffffffffffffffff16815260200190815260200160002060007f44414900000000000000000000000000000000000000000000000000000000008152602001908152602001600020819055506113ea816002600088888154811061135e57fe5b906000526020600020906007020160010160009054906101000a900473ffffffffffffffffffffffffffffffffffffffff1673ffffffffffffffffffffffffffffffffffffffff1673ffffffffffffffffffffffffffffffffffffffff16815260200190815260200160002060008d8152602001908152602001600020546125cc90919063ffffffff16565b600260008787815481106113fa57fe5b906000526020600020906007020160010160009054906101000a900473ffffffffffffffffffffffffffffffffffffffff1673ffffffffffffffffffffffffffffffffffffffff1673ffffffffffffffffffffffffffffffffffffffff16815260200190815260200160002060008c81526020019081526020016000208190555061156a6114ae86868154811061148d57fe5b9060005260206000209060070201600501548361266b90919063ffffffff16565b600260008888815481106114be57fe5b906000526020600020906007020160010160009054906101000a900473ffffffffffffffffffffffffffffffffffffffff1673ffffffffffffffffffffffffffffffffffffffff1673ffffffffffffffffffffffffffffffffffffffff16815260200190815260200160002060007f444149000000000000000000000000000000000000000000000000000000000081526020019081526020016000205461261690919063ffffffff16565b6002600087878154811061157a57fe5b906000526020600020906007020160010160009054906101000a900473ffffffffffffffffffffffffffffffffffffffff1673ffffffffffffffffffffffffffffffffffffffff1673ffffffffffffffffffffffffffffffffffffffff16815260200190815260200160002060007f44414900000000000000000000000000000000000000000000000000000000008152602001908152602001600020819055505b600660008154809291906001019190505550838060010194505050506109d6565b600091505b82805490508210801561168e575082828154811061165c57fe5b90600052602060002090600702016003015483838154811061167a57fe5b906000526020600020906007020160040154145b156118645760008290505b60018480549050038110156117c8578360018201815481106116b757fe5b90600052602060002090600702018482815481106116d157fe5b9060005260206000209060070201600082015481600001556001820160009054906101000a900473ffffffffffffffffffffffffffffffffffffffff168160010160006101000a81548173ffffffffffffffffffffffffffffffffffffffff021916908373ffffffffffffffffffffffffffffffffffffffff1602179055506001820160149054906101000a900460ff168160010160146101000a81548160ff0219169083600181111561178157fe5b021790555060028201548160020155600382015481600301556004820154816004015560058201548160050155600682015481600601559050508080600101915050611699565b50828054806117d357fe5b60019003818190600052602060002090600702016000808201600090556001820160006101000a81549073ffffffffffffffffffffffffffffffffffffffff02191690556001820160146101000a81549060ff021916905560028201600090556003820160009055600482016000905560058201600090556006820160009055505090558180600101925050611642565b5050505050505050565b60065481565b60006020528060005260406000206000915090508060000154908060010160009054906101000a900473ffffffffffffffffffffffffffffffffffffffff16905082565b600460009054906101000a900473ffffffffffffffffffffffffffffffffffffffff1673ffffffffffffffffffffffffffffffffffffffff163373ffffffffffffffffffffffffffffffffffffffff1614611948576040517f08c379a000000000000000000000000000000000000000000000000000000000815260040161193f9061311e565b60405180910390fd5b60405180604001604052808381526020018273ffffffffffffffffffffffffffffffffffffffff168152506000808481526020019081526020016000206000820151816000015560208201518160010160006101000a81548173ffffffffffffffffffffffffffffffffffffffff021916908373ffffffffffffffffffffffffffffffffffffffff160217905550905050600160405180604001604052808481526020018373ffffffffffffffffffffffffffffffffffffffff1681525090806001815401808255809150506001900390600052602060002090600202016000909190919091506000820151816000015560208201518160010160006101000a81548173ffffffffffffffffffffffffffffffffffffffff021916908373ffffffffffffffffffffffffffffffffffffffff16021790555050505050565b60018181548110611a9357fe5b90600052602060002090600202016000915090508060000154908060010160009054906101000a900473ffffffffffffffffffffffffffffffffffffffff16905082565b60606001805480602002602001604051908101604052809291908181526020016000905b82821015611b8d5783829060005260206000209060020201604051806040016040529081600082015481526020016001820160009054906101000a900473ffffffffffffffffffffffffffffffffffffffff1673ffffffffffffffffffffffffffffffffffffffff1673ffffffffffffffffffffffffffffffffffffffff168152505081526020019060010190611afb565b50505050905090565b80600073ffffffffffffffffffffffffffffffffffffffff1660008083815260200190815260200160002060010160009054906101000a900473ffffffffffffffffffffffffffffffffffffffff1673ffffffffffffffffffffffffffffffffffffffff161415611c3c576040517f08c379a0000000000000000000000000000000000000000000000000000000008152600401611c339061305e565b60405180910390fd5b60008083815260200190815260200160002060010160009054906101000a900473ffffffffffffffffffffffffffffffffffffffff1673ffffffffffffffffffffffffffffffffffffffff166323b872dd3330866040518463ffffffff1660e01b8152600401611cae93929190612f6f565b602060405180830381600087803b158015611cc857600080fd5b505af1158015611cdc573d6000803e3d6000fd5b505050506040513d601f19601f82011682018060405250611d009190810190612844565b50611d6483600260003373ffffffffffffffffffffffffffffffffffffffff1673ffffffffffffffffffffffffffffffffffffffff16815260200190815260200160002060008581526020019081526020016000205461261690919063ffffffff16565b600260003373ffffffffffffffffffffffffffffffffffffffff1673ffffffffffffffffffffffffffffffffffffffff168152602001908152602001600020600084815260200190815260200160002081905550505050565b83600073ffffffffffffffffffffffffffffffffffffffff1660008083815260200190815260200160002060010160009054906101000a900473ffffffffffffffffffffffffffffffffffffffff1673ffffffffffffffffffffffffffffffffffffffff161415611e63576040517f08c379a0000000000000000000000000000000000000000000000000000000008152600401611e5a9061305e565b60405180910390fd5b847f4441490000000000000000000000000000000000000000000000000000000000811415611ec7576040517f08c379a0000000000000000000000000000000000000000000000000000000008152600401611ebe906130be565b60405180910390fd5b600180811115611ed357fe5b836001811115611edf57fe5b1415611f7d5784600260003373ffffffffffffffffffffffffffffffffffffffff1673ffffffffffffffffffffffffffffffffffffffff1681526020019081526020016000206000888152602001908152602001600020541015611f78576040517f08c379a0000000000000000000000000000000000000000000000000000000008152600401611f6f9061313e565b60405180910390fd5b612043565b611f90848661266b90919063ffffffff16565b600260003373ffffffffffffffffffffffffffffffffffffffff1673ffffffffffffffffffffffffffffffffffffffff16815260200190815260200160002060007f44414900000000000000000000000000000000000000000000000000000000008152602001908152602001600020541015612042576040517f08c379a0000000000000000000000000000000000000000000000000000000008152600401612039906130fe565b60405180910390fd5b5b600060036000888152602001908152602001600020600085600181111561206657fe5b815260200190815260200160002090508060405180610100016040528060055481526020013373ffffffffffffffffffffffffffffffffffffffff1681526020018660018111156120b357fe5b8152602001898152602001888152602001600081526020018781526020014281525090806001815401808255809150506001900390600052602060002090600702016000909190919091506000820151816000015560208201518160010160006101000a81548173ffffffffffffffffffffffffffffffffffffffff021916908373ffffffffffffffffffffffffffffffffffffffff16021790555060408201518160010160146101000a81548160ff0219169083600181111561217357fe5b0217905550606082015181600201556080820151816003015560a0820151816004015560c0820151816005015560e0820151816006015550506000808280549050116121c05760006121c9565b60018280549050035b90505b600081111561258a57600060018111156121e257fe5b8560018111156121ee57fe5b148015612237575081818154811061220257fe5b90600052602060002090600702016005015482600183038154811061222357fe5b906000526020600020906007020160050154115b156122415761258a565b60018081111561224d57fe5b85600181111561225957fe5b1480156122a2575081818154811061226d57fe5b90600052602060002090600702016005015482600183038154811061228e57fe5b906000526020600020906007020160050154105b156122ac5761258a565b6122b4612736565b8260018303815481106122c357fe5b906000526020600020906007020160405180610100016040529081600082015481526020016001820160009054906101000a900473ffffffffffffffffffffffffffffffffffffffff1673ffffffffffffffffffffffffffffffffffffffff1673ffffffffffffffffffffffffffffffffffffffff1681526020016001820160149054906101000a900460ff16600181111561235b57fe5b600181111561236657fe5b81526020016002820154815260200160038201548152602001600482015481526020016005820154815260200160068201548152505090508282815481106123aa57fe5b90600052602060002090600702018360018403815481106123c757fe5b9060005260206000209060070201600082015481600001556001820160009054906101000a900473ffffffffffffffffffffffffffffffffffffffff168160010160006101000a81548173ffffffffffffffffffffffffffffffffffffffff021916908373ffffffffffffffffffffffffffffffffffffffff1602179055506001820160149054906101000a900460ff168160010160146101000a81548160ff0219169083600181111561247757fe5b02179055506002820154816002015560038201548160030155600482015481600401556005820154816005015560068201548160060155905050808383815481106124be57fe5b90600052602060002090600702016000820151816000015560208201518160010160006101000a81548173ffffffffffffffffffffffffffffffffffffffff021916908373ffffffffffffffffffffffffffffffffffffffff16021790555060408201518160010160146101000a81548160ff0219169083600181111561254157fe5b0217905550606082015181600201556080820151816003015560a0820151816004015560c0820151816005015560e08201518160060155905050818060019003925050506121cc565b6005600081548092919060010191905055505050505050505050565b600460009054906101000a900473ffffffffffffffffffffffffffffffffffffffff1681565b600061260e83836040518060400160405280601e81526020017f536166654d6174683a207375627472616374696f6e206f766572666c6f7700008152506126db565b905092915050565b600080828401905083811015612661576040517f08c379a00000000000000000000000000000000000000000000000000000000081526004016126589061307e565b60405180910390fd5b8091505092915050565b60008083141561267e57600090506126d5565b600082840290508284828161268f57fe5b04146126d0576040517f08c379a00000000000000000000000000000000000000000000000000000000081526004016126c7906130de565b60405180910390fd5b809150505b92915050565b6000838311158290612723576040517f08c379a000000000000000000000000000000000000000000000000000000000815260040161271a919061303c565b60405180910390fd5b5060008385039050809150509392505050565b60405180610100016040528060008152602001600073ffffffffffffffffffffffffffffffffffffffff1681526020016000600181111561277357fe5b815260200160008019168152602001600081526020016000815260200160008152602001600081525090565b6000813590506127ae816133d6565b92915050565b6000815190506127c3816133ed565b92915050565b6000813590506127d881613404565b92915050565b6000813590506127ed8161341b565b92915050565b6000813590506128028161342b565b92915050565b6000806040838503121561281b57600080fd5b60006128298582860161279f565b925050602061283a858286016127c9565b9150509250929050565b60006020828403121561285657600080fd5b6000612864848285016127b4565b91505092915050565b60006020828403121561287f57600080fd5b600061288d848285016127c9565b91505092915050565b600080604083850312156128a957600080fd5b60006128b7858286016127c9565b92505060206128c88582860161279f565b9150509250929050565b600080604083850312156128e557600080fd5b60006128f3858286016127c9565b9250506020612904858286016127de565b9150509250929050565b6000806040838503121561292157600080fd5b600061292f858286016127c9565b9250506020612940858286016127f3565b9150509250929050565b60008060006060848603121561295f57600080fd5b600061296d868287016127c9565b935050602061297e868287016127f3565b925050604061298f868287016127de565b9150509250925092565b6000806000606084860312156129ae57600080fd5b60006129bc868287016127c9565b93505060206129cd868287016127f3565b92505060406129de868287016127f3565b9150509250925092565b600080600080608085870312156129fe57600080fd5b6000612a0c878288016127c9565b9450506020612a1d878288016127f3565b9350506040612a2e878288016127f3565b9250506060612a3f878288016127de565b91505092959194509250565b600060208284031215612a5d57600080fd5b6000612a6b848285016127f3565b91505092915050565b60008060408385031215612a8757600080fd5b6000612a95858286016127f3565b9250506020612aa6858286016127c9565b9150509250929050565b6000612abc8383612e65565b6101008301905092915050565b6000612ad58383612f07565b60408301905092915050565b612aea8161333d565b82525050565b612af9816132d8565b82525050565b612b08816132d8565b82525050565b6000612b198261326a565b612b2381856132a5565b9350612b2e8361324a565b8060005b83811015612b5f578151612b468882612ab0565b9750612b518361328b565b925050600181019050612b32565b5085935050505092915050565b6000612b7782613275565b612b8181856132b6565b9350612b8c8361325a565b8060005b83811015612bbd578151612ba48882612ac9565b9750612baf83613298565b925050600181019050612b90565b5085935050505092915050565b612bd3816132f6565b82525050565b612be2816132f6565b82525050565b612bf18161334f565b82525050565b612c008161334f565b82525050565b6000612c1182613280565b612c1b81856132c7565b9350612c2b818560208601613385565b612c34816133b8565b840191505092915050565b6000612c4c6013836132c7565b91507f546f6b656e20646f65736e6f74206578697374000000000000000000000000006000830152602082019050919050565b6000612c8c601b836132c7565b91507f536166654d6174683a206164646974696f6e206f766572666c6f7700000000006000830152602082019050919050565b6000612ccc6014836132c7565b91507f496e73756666696369656e742062616c616e63650000000000000000000000006000830152602082019050919050565b6000612d0c6014836132c7565b91507f4441492063616e6e6f74206265207472616465640000000000000000000000006000830152602082019050919050565b6000612d4c6021836132c7565b91507f536166654d6174683a206d756c7469706c69636174696f6e206f766572666c6f60008301527f77000000000000000000000000000000000000000000000000000000000000006020830152604082019050919050565b6000612db26018836132c7565b91507f496e73756666696369656e74204441492062616c616e636500000000000000006000830152602082019050919050565b6000612df26012836132c7565b91507f4f6e6c792041646d696e20416c6c6f77656400000000000000000000000000006000830152602082019050919050565b6000612e32601a836132c7565b91507f496e73756666696369656e7420546f6b656e2042616c616e63650000000000006000830152602082019050919050565b61010082016000820151612e7c6000850182612f36565b506020820151612e8f6020850182612af0565b506040820151612ea26040850182612be8565b506060820151612eb56060850182612bca565b506080820151612ec86080850182612f36565b5060a0820151612edb60a0850182612f36565b5060c0820151612eee60c0850182612f36565b5060e0820151612f0160e0850182612f36565b50505050565b604082016000820151612f1d6000850182612bca565b506020820151612f306020850182612af0565b50505050565b612f3f81613333565b82525050565b612f4e81613333565b82525050565b6000602082019050612f696000830184612aff565b92915050565b6000606082019050612f846000830186612ae1565b612f916020830185612aff565b612f9e6040830184612f45565b949350505050565b6000604082019050612fbb6000830185612ae1565b612fc86020830184612f45565b9392505050565b60006020820190508181036000830152612fe98184612b0e565b905092915050565b6000602082019050818103600083015261300b8184612b6c565b905092915050565b60006040820190506130286000830185612bd9565b6130356020830184612aff565b9392505050565b600060208201905081810360008301526130568184612c06565b905092915050565b6000602082019050818103600083015261307781612c3f565b9050919050565b6000602082019050818103600083015261309781612c7f565b9050919050565b600060208201905081810360008301526130b781612cbf565b9050919050565b600060208201905081810360008301526130d781612cff565b9050919050565b600060208201905081810360008301526130f781612d3f565b9050919050565b6000602082019050818103600083015261311781612da5565b9050919050565b6000602082019050818103600083015261313781612de5565b9050919050565b6000602082019050818103600083015261315781612e25565b9050919050565b60006020820190506131736000830184612f45565b92915050565b60006101008201905061318f600083018b612f45565b61319c602083018a612aff565b6131a96040830189612bf7565b6131b66060830188612bd9565b6131c36080830187612f45565b6131d060a0830186612f45565b6131dd60c0830185612f45565b6131ea60e0830184612f45565b9998505050505050505050565b600060a08201905061320c6000830188612f45565b6132196020830187612f45565b6132266040830186612f45565b6132336060830185612f45565b6132406080830184612f45565b9695505050505050565b6000819050602082019050919050565b6000819050602082019050919050565b600081519050919050565b600081519050919050565b600081519050919050565b6000602082019050919050565b6000602082019050919050565b600082825260208201905092915050565b600082825260208201905092915050565b600082825260208201905092915050565b60006132e382613313565b9050919050565b60008115159050919050565b6000819050919050565b600081905061330e826133c9565b919050565b600073ffffffffffffffffffffffffffffffffffffffff82169050919050565b6000819050919050565b600061334882613361565b9050919050565b600061335a82613300565b9050919050565b600061336c82613373565b9050919050565b600061337e82613313565b9050919050565b60005b838110156133a3578082015181840152602081019050613388565b838111156133b2576000848401525b50505050565b6000601f19601f8301169050919050565b600281106133d357fe5b50565b6133df816132d8565b81146133ea57600080fd5b50565b6133f6816132ea565b811461340157600080fd5b50565b61340d816132f6565b811461341857600080fd5b50565b6002811061342857600080fd5b50565b61343481613333565b811461343f57600080fd5b5056fea2646970667358221220175debdc293aef048d5df7daa33a65e525a300aa5535b9bd851fa4fe7adc915e64736f6c63430006030033",
  "source": "pragma solidity ^0.6.3;\r\npragma experimental ABIEncoderV2;\r\n\r\n\r\nimport '@openzeppelin/contracts/token/ERC20/IERC20.sol';\r\nimport '@openzeppelin/contracts/math/SafeMath.sol';\r\n\r\ncontract Dex{\r\n    using SafeMath for uint;\r\n    \r\n    // state variables\r\n    enum Side {BUY,SELL}\r\n\r\n    // a struct to represent erc20  tokens\r\n    struct Token{\r\n        bytes32 ticker;\r\n        address tokenAddress;\r\n    }\r\n\r\n     // a struct to represent orders\r\n   \r\n\r\n     struct Order {\r\n        uint id;\r\n        address trader;\r\n        Side side;\r\n        bytes32 ticker;\r\n        uint amount;\r\n        uint filled;\r\n        uint price;\r\n        uint date;\r\n    }\r\n    \r\n      // collection of tokens\r\n    mapping(bytes32=>Token) public tokens;\r\n        // a list of tokens which we can iterate through\r\n    Token[] public tokenList;\r\n    // bytes32[] public tokenList;\r\n\r\n    // a mapping to hold balances of traders and their tokens\r\n    mapping(address=>mapping(bytes32=>uint))public  traderBalances;\r\n    // mapping to keep track of orders i.e orderbook\r\n    mapping(bytes32=>mapping(uint=>Order[])) public orderBook;\r\n  \r\n    address public admin;\r\n    uint public nextOrderId;\r\n    uint public nextTradeId;\r\n    bytes32 constant DAI=bytes32('DAI');\r\n    \r\n    \r\n    \r\n  \r\n    \r\n   \r\n    \r\n    // event to be fired when a trade occurs\r\n    // event NewTrade(\r\n    //     uint tradeId,\r\n    //     uint orderId,\r\n    //     bytes32 indexed ticker, \r\n    //     uint price,\r\n    //     uint amount,\r\n    //     address indexed  trader1,\r\n    //     address indexed trader2,\r\n    //     uint date\r\n    //     );\r\n\r\n    event NewTrade(\r\n        uint tradeId,\r\n        uint orderId,\r\n        bytes32 indexed ticker,\r\n        address indexed trader1,\r\n        address indexed trader2,\r\n        uint amount,\r\n        uint price,\r\n        uint date\r\n    );\r\n    \r\n  \r\n    \r\n    // constructor\r\n    constructor() public {\r\n        admin=msg.sender;\r\n    }\r\n\r\n    // a function to get orders for buy or sell for a particular token\r\n    \r\n    function getOrders (bytes32 ticker, Side side) external view  returns (Order[] memory){\r\n              return orderBook[ticker][uint(side)];\r\n\r\n    }\r\n\r\n      // a function to get list of tokens that can be traded at the dex\r\n    function listTradeTokens() public view returns(Token[] memory){\r\n// Token[] memory _tokens = new Token[](tokenList.length);\r\n//       for (uint i = 0; i < tokenList.length; i++) {\r\n//         _tokens[i] = Token(\r\n//           tokens[tokenList[i]].ticker,\r\n//           tokens[tokenList[i]].tokenAddress\r\n//         );\r\n//       }\r\n//       return _tokens;\r\n\r\nreturn tokenList;\r\n    \r\n\r\n    }\r\n\r\n    // a function to add tokens to the dex\r\n    function addToken(\r\n        bytes32 ticker ,\r\n        address tokenAddress\r\n        ) onlyAdmin() \r\n         external  {\r\n        // // add the new token to the mapping      \r\n        // tokens[_ticker]=Token({\r\n        //                        ticker:_ticker,\r\n        //                     tokenAddress: _tokenAddress\r\n        //                       });\r\n                              \r\n        //  // add token to the token list\r\n        // tokenList.push(Token({\r\n        //                        ticker:_ticker,\r\n        //                     tokenAddress: _tokenAddress\r\n        //                       }));\r\n\r\n        tokens[ticker] = Token(ticker, tokenAddress);\r\n        // tokenList.push(ticker);\r\n        tokenList.push(Token(ticker,tokenAddress));\r\n                              \r\n    }\r\n\r\n\r\n     // a function to deposit tokens to the dex\r\n    function depositTokens(\r\n        uint amount, \r\n        bytes32 ticker\r\n        )\r\n        tokenExist(ticker) external {\r\n        // send the token to the contract\r\n        \r\n        // IERC20(tokens[_ticker].tokenAddress).transferFrom(\r\n        //     msg.sender,\r\n        //     address(this),\r\n        //     _amount\r\n        //     );\r\n            \r\n        //     // update the balance of the sender balance for that erc20 token\r\n        //     traderBalances[msg.sender][_ticker]=traderBalances[msg.sender][_ticker].add(_amount);\r\n\r\n        IERC20(tokens[ticker].tokenAddress).transferFrom(\r\n            msg.sender,\r\n            address(this),\r\n            amount\r\n        );\r\n        traderBalances[msg.sender][ticker] = traderBalances[msg.sender][ticker].add(amount);\r\n        \r\n    }\r\n\r\n    // a function to withdraw erc20 tokens from the contract\r\n    function withdrawToken(\r\n        bytes32 ticker ,\r\n         uint amount\r\n         ) \r\n         tokenExist(ticker) external {\r\n        \r\n        // // check if user has sufficient balance to withdraw\r\n        // require(traderBalances[msg.sender][_ticker]>=_amount,'Insufficient balance');\r\n        \r\n        // // if user has sufficient balance , deduct the erc20 token balance \r\n        // traderBalances[msg.sender][_ticker]=traderBalances[msg.sender][_ticker].sub(_amount);\r\n        \r\n        // // send the actual erc20 token from contract to the withdrawer address\r\n        // IERC20(tokens[_ticker].tokenAddress).transfer(\r\n        //     msg.sender,\r\n        //     _amount\r\n        //     );\r\n\r\n        require(\r\n            traderBalances[msg.sender][ticker] >= amount,\r\n            'Insufficient balance'\r\n        ); \r\n        traderBalances[msg.sender][ticker] = traderBalances[msg.sender][ticker].sub(amount);\r\n        IERC20(tokens[ticker].tokenAddress).transfer(msg.sender, amount);\r\n    }\r\n\r\n    // function to create limit order\r\n    function createLimitOrder (\r\n        bytes32 ticker,\r\n        uint amount,\r\n         uint price ,\r\n          Side side\r\n          )  \r\n          tokenExist(ticker) tokenIsNotDai(ticker)\r\n           external{\r\n       \r\n        \r\n\r\n\r\n        if(side == Side.SELL) {\r\n            require(\r\n                traderBalances[msg.sender][ticker] >= amount, \r\n                'Insufficient Token Balance'\r\n            );\r\n        } else {\r\n            require(\r\n                traderBalances[msg.sender][DAI] >= amount.mul(price),\r\n                'Insufficient DAI balance'\r\n            );\r\n        }\r\n        Order[] storage orders = orderBook[ticker][uint(side)];\r\n        orders.push(Order(\r\n            nextOrderId,\r\n            msg.sender,\r\n            side,\r\n            ticker,\r\n            amount,\r\n            0,\r\n            price,\r\n            now \r\n        ));\r\n        \r\n        uint i = orders.length > 0 ? orders.length - 1 : 0;\r\n        while(i > 0) {\r\n            if(side == Side.BUY && orders[i - 1].price > orders[i].price) {\r\n                break;   \r\n            }\r\n            if(side == Side.SELL && orders[i - 1].price < orders[i].price) {\r\n                break;   \r\n            }\r\n            Order memory order = orders[i - 1];\r\n            orders[i - 1] = orders[i];\r\n            orders[i] = order;\r\n            i--;\r\n        }\r\n        nextOrderId++;\r\n    }\r\n\r\n    // a function to create market orders\r\n    function createMarketOrder(\r\n        bytes32 ticker,\r\n        uint amount,\r\n        Side side)  tokenExist(ticker)  tokenIsNotDai(ticker) external{\r\n\r\n         if(side == Side.SELL) {\r\n            require(\r\n                traderBalances[msg.sender][ticker] >= amount, \r\n                'Insufficient Token Balance'\r\n            );\r\n        }\r\n        Order[] storage orders = orderBook[ticker][uint(side == Side.BUY ? Side.SELL : Side.BUY)];\r\n        uint i;\r\n        uint remaining = amount;\r\n        \r\n        while(i < orders.length && remaining > 0) {\r\n            uint available = orders[i].amount.sub(orders[i].filled);\r\n            uint matched = (remaining > available) ? available : remaining;\r\n            remaining = remaining.sub(matched);\r\n            orders[i].filled = orders[i].filled.add(matched);\r\n            emit NewTrade(\r\n                nextTradeId,\r\n                orders[i].id,\r\n                ticker,\r\n                orders[i].trader,\r\n                msg.sender,\r\n                matched,\r\n                orders[i].price,\r\n                now\r\n            );\r\n            if(side == Side.SELL) {\r\n                traderBalances[msg.sender][ticker] = traderBalances[msg.sender][ticker].sub(matched);\r\n                traderBalances[msg.sender][DAI] = traderBalances[msg.sender][DAI].add(matched.mul(orders[i].price));\r\n                traderBalances[orders[i].trader][ticker] = traderBalances[orders[i].trader][ticker].add(matched);\r\n                traderBalances[orders[i].trader][DAI] = traderBalances[orders[i].trader][DAI].sub(matched.mul(orders[i].price));\r\n            }\r\n            if(side == Side.BUY) {\r\n                require(\r\n                    traderBalances[msg.sender][DAI] >= matched.mul(orders[i].price),\r\n                    'Insufficient DAI balance'\r\n                );\r\n                traderBalances[msg.sender][ticker] = traderBalances[msg.sender][ticker].add(matched);\r\n                traderBalances[msg.sender][DAI] = traderBalances[msg.sender][DAI].sub(matched.mul(orders[i].price));\r\n                traderBalances[orders[i].trader][ticker] = traderBalances[orders[i].trader][ticker].sub(matched);\r\n                traderBalances[orders[i].trader][DAI] = traderBalances[orders[i].trader][DAI].add(matched.mul(orders[i].price));\r\n            }\r\n            nextTradeId++;\r\n            i++;\r\n        }\r\n        \r\n        i = 0;\r\n        while(i < orders.length && orders[i].filled == orders[i].amount) {\r\n            for(uint j = i; j < orders.length - 1; j++ ) {\r\n                orders[j] = orders[j + 1];\r\n            }\r\n            orders.pop();\r\n            i++;\r\n        }\r\n\r\n\r\n        }\r\n\r\n         // modifier to check token is not DAI\r\n    modifier tokenIsNotDai(bytes32 _ticker) {\r\n        require(_ticker!= DAI,'DAI cannot be traded');\r\n        _;\r\n    }\r\n    \r\n     // modifier to check if given token exist \r\n    modifier tokenExist (bytes32 _ticker){\r\n        require(tokens[_ticker].tokenAddress!=address(0),'Token doesnot exist');\r\n        _;\r\n    }\r\n    \r\n    \r\n    \r\n    // modifiers\r\n    modifier onlyAdmin() {\r\n        require(msg.sender==admin,'Only Admin Allowed');\r\n        _;\r\n    }\r\n    \r\n}\r\n\r\n",
  "sourcePath": "C:/Users/Abhishek/Desktop/web dev/JS_INTERVIEW/REACTJS/PROJECT1/EAT_THE_BLOCKS/git_eth_dex/eth-erc20-dex/contracts/Dex.sol",
  "compiler": {
    "name": "solc",
    "version": "0.6.3+commit.8dda9521.Emscripten.clang"
  },
  "schemaVersion": "3.3.2",
  "updatedAt": "2021-01-15T07:12:50.346Z",
  "networkType": "ethereum",
  "devdoc": {
    "methods": {}
  },
  "userdoc": {
    "methods": {}
  }
}