{
  "contractName": "Dex",
  "abi": [
    {
      "inputs": [],
      "stateMutability": "nonpayable",
      "type": "constructor"
    },
    {
      "anonymous": false,
      "inputs": [
        {
          "indexed": false,
          "internalType": "uint256",
          "name": "tradeId",
          "type": "uint256"
        },
        {
          "indexed": false,
          "internalType": "uint256",
          "name": "orderId",
          "type": "uint256"
        },
        {
          "indexed": true,
          "internalType": "bytes32",
          "name": "ticker",
          "type": "bytes32"
        },
        {
          "indexed": false,
          "internalType": "uint256",
          "name": "price",
          "type": "uint256"
        },
        {
          "indexed": false,
          "internalType": "uint256",
          "name": "amount",
          "type": "uint256"
        },
        {
          "indexed": true,
          "internalType": "address",
          "name": "trader1",
          "type": "address"
        },
        {
          "indexed": true,
          "internalType": "address",
          "name": "trader2",
          "type": "address"
        },
        {
          "indexed": false,
          "internalType": "uint256",
          "name": "date",
          "type": "uint256"
        }
      ],
      "name": "NewTrade",
      "type": "event"
    },
    {
      "inputs": [],
      "name": "admin",
      "outputs": [
        {
          "internalType": "address",
          "name": "",
          "type": "address"
        }
      ],
      "stateMutability": "view",
      "type": "function",
      "constant": true
    },
    {
      "inputs": [],
      "name": "nextOrderId",
      "outputs": [
        {
          "internalType": "uint256",
          "name": "",
          "type": "uint256"
        }
      ],
      "stateMutability": "view",
      "type": "function",
      "constant": true
    },
    {
      "inputs": [],
      "name": "nextTradeId",
      "outputs": [
        {
          "internalType": "uint256",
          "name": "",
          "type": "uint256"
        }
      ],
      "stateMutability": "view",
      "type": "function",
      "constant": true
    },
    {
      "inputs": [
        {
          "internalType": "bytes32",
          "name": "",
          "type": "bytes32"
        },
        {
          "internalType": "uint256",
          "name": "",
          "type": "uint256"
        },
        {
          "internalType": "uint256",
          "name": "",
          "type": "uint256"
        }
      ],
      "name": "orderbook",
      "outputs": [
        {
          "internalType": "uint256",
          "name": "id",
          "type": "uint256"
        },
        {
          "internalType": "uint256",
          "name": "amount",
          "type": "uint256"
        },
        {
          "internalType": "uint256",
          "name": "price",
          "type": "uint256"
        },
        {
          "internalType": "address",
          "name": "trader",
          "type": "address"
        },
        {
          "internalType": "uint256",
          "name": "filled",
          "type": "uint256"
        },
        {
          "internalType": "enum Dex.Side",
          "name": "side",
          "type": "uint8"
        },
        {
          "internalType": "bytes32",
          "name": "ticker",
          "type": "bytes32"
        },
        {
          "internalType": "uint256",
          "name": "date",
          "type": "uint256"
        }
      ],
      "stateMutability": "view",
      "type": "function",
      "constant": true
    },
    {
      "inputs": [
        {
          "internalType": "uint256",
          "name": "",
          "type": "uint256"
        }
      ],
      "name": "tokenList",
      "outputs": [
        {
          "internalType": "bytes32",
          "name": "ticker",
          "type": "bytes32"
        },
        {
          "internalType": "address",
          "name": "tokenAddress",
          "type": "address"
        }
      ],
      "stateMutability": "view",
      "type": "function",
      "constant": true
    },
    {
      "inputs": [
        {
          "internalType": "bytes32",
          "name": "",
          "type": "bytes32"
        }
      ],
      "name": "tokens",
      "outputs": [
        {
          "internalType": "bytes32",
          "name": "ticker",
          "type": "bytes32"
        },
        {
          "internalType": "address",
          "name": "tokenAddress",
          "type": "address"
        }
      ],
      "stateMutability": "view",
      "type": "function",
      "constant": true
    },
    {
      "inputs": [
        {
          "internalType": "address",
          "name": "",
          "type": "address"
        },
        {
          "internalType": "bytes32",
          "name": "",
          "type": "bytes32"
        }
      ],
      "name": "traderBalances",
      "outputs": [
        {
          "internalType": "uint256",
          "name": "",
          "type": "uint256"
        }
      ],
      "stateMutability": "view",
      "type": "function",
      "constant": true
    },
    {
      "inputs": [
        {
          "internalType": "bytes32",
          "name": "_ticker",
          "type": "bytes32"
        },
        {
          "internalType": "address",
          "name": "_tokenAddress",
          "type": "address"
        }
      ],
      "name": "addToken",
      "outputs": [],
      "stateMutability": "nonpayable",
      "type": "function"
    },
    {
      "inputs": [
        {
          "internalType": "uint256",
          "name": "_amount",
          "type": "uint256"
        },
        {
          "internalType": "bytes32",
          "name": "_ticker",
          "type": "bytes32"
        }
      ],
      "name": "depositTokens",
      "outputs": [],
      "stateMutability": "nonpayable",
      "type": "function"
    },
    {
      "inputs": [
        {
          "internalType": "bytes32",
          "name": "_ticker",
          "type": "bytes32"
        },
        {
          "internalType": "uint256",
          "name": "_amount",
          "type": "uint256"
        }
      ],
      "name": "withdrawToken",
      "outputs": [],
      "stateMutability": "nonpayable",
      "type": "function"
    },
    {
      "inputs": [
        {
          "internalType": "bytes32",
          "name": "_ticker",
          "type": "bytes32"
        },
        {
          "internalType": "uint256",
          "name": "_amount",
          "type": "uint256"
        },
        {
          "internalType": "uint256",
          "name": "_price",
          "type": "uint256"
        },
        {
          "internalType": "enum Dex.Side",
          "name": "_side",
          "type": "uint8"
        }
      ],
      "name": "createLimitOrder",
      "outputs": [],
      "stateMutability": "nonpayable",
      "type": "function"
    },
    {
      "inputs": [
        {
          "internalType": "bytes32",
          "name": "_ticker",
          "type": "bytes32"
        },
        {
          "internalType": "uint256",
          "name": "_amount",
          "type": "uint256"
        },
        {
          "internalType": "enum Dex.Side",
          "name": "_side",
          "type": "uint8"
        }
      ],
      "name": "createMarketOrder",
      "outputs": [],
      "stateMutability": "nonpayable",
      "type": "function"
    },
    {
      "inputs": [
        {
          "internalType": "bytes32",
          "name": "_ticker",
          "type": "bytes32"
        },
        {
          "internalType": "enum Dex.Side",
          "name": "_side",
          "type": "uint8"
        }
      ],
      "name": "getOrders",
      "outputs": [
        {
          "components": [
            {
              "internalType": "uint256",
              "name": "id",
              "type": "uint256"
            },
            {
              "internalType": "uint256",
              "name": "amount",
              "type": "uint256"
            },
            {
              "internalType": "uint256",
              "name": "price",
              "type": "uint256"
            },
            {
              "internalType": "address",
              "name": "trader",
              "type": "address"
            },
            {
              "internalType": "uint256",
              "name": "filled",
              "type": "uint256"
            },
            {
              "internalType": "enum Dex.Side",
              "name": "side",
              "type": "uint8"
            },
            {
              "internalType": "bytes32",
              "name": "ticker",
              "type": "bytes32"
            },
            {
              "internalType": "uint256",
              "name": "date",
              "type": "uint256"
            }
          ],
          "internalType": "struct Dex.Order[]",
          "name": "",
          "type": "tuple[]"
        }
      ],
      "stateMutability": "view",
      "type": "function",
      "constant": true
    },
    {
      "inputs": [],
      "name": "listTradeTokens",
      "outputs": [
        {
          "components": [
            {
              "internalType": "bytes32",
              "name": "ticker",
              "type": "bytes32"
            },
            {
              "internalType": "address",
              "name": "tokenAddress",
              "type": "address"
            }
          ],
          "internalType": "struct Dex.Token[]",
          "name": "",
          "type": "tuple[]"
        }
      ],
      "stateMutability": "view",
      "type": "function",
      "constant": true
    }
  ],
  "bytecode": "0x608060405234801561001057600080fd5b5033600360006101000a81548173ffffffffffffffffffffffffffffffffffffffff021916908373ffffffffffffffffffffffffffffffffffffffff1602179055506134f0806100616000396000f3fe608060405234801561001057600080fd5b50600436106100ea5760003560e01c80639776aacf1161008c578063d15b223e11610066578063d15b223e1461025f578063d9c0c9501461027b578063f850240214610297578063f851a440146102ce576100ea565b80639776aacf146101f45780639ead722214610210578063af5f068f14610241576100ea565b80637d6b4982116100c85780637d6b49821461016d5780637f2c624614610189578063813ad083146101a5578063904194a3146101c3576100ea565b80632a58b330146100ef57806346e9658b1461010d57806372ce957e1461013d575b600080fd5b6100f76102ec565b60405161010491906131d6565b60405180910390f35b6101276004803603610122919081019061294a565b6102f2565b6040516101349190613047565b60405180910390f35b61015760048036036101529190810190612880565b610441565b60405161016491906131d6565b60405180910390f35b61018760048036036101829190810190612986565b610466565b005b6101a3600480360361019e91908101906129c2565b61071e565b005b6101ad611833565b6040516101ba91906131d6565b60405180910390f35b6101dd60048036036101d891908101906128e5565b611839565b6040516101eb92919061308b565b60405180910390f35b61020e6004803603610209919081019061290e565b61187d565b005b61022a60048036036102259190810190612ac3565b611a4b565b60405161023892919061308b565b60405180910390f35b610249611a9c565b6040516102569190613069565b60405180910390f35b61027960048036036102749190810190612aec565b611b5b565b005b61029560048036036102909190810190612a60565b611d82565b005b6102b160048036036102ac9190810190612a11565b612582565b6040516102c59897969594939291906131f1565b60405180910390f35b6102d661261e565b6040516102e39190612fcc565b60405180910390f35b60045481565b606060026000848152602001908152602001600020600083600181111561031557fe5b8152602001908152602001600020805480602002602001604051908101604052809291908181526020016000905b828210156104355783829060005260206000209060080201604051806101000160405290816000820154815260200160018201548152602001600282015481526020016003820160009054906101000a900473ffffffffffffffffffffffffffffffffffffffff1673ffffffffffffffffffffffffffffffffffffffff1673ffffffffffffffffffffffffffffffffffffffff168152602001600482015481526020016005820160009054906101000a900460ff16600181111561040357fe5b600181111561040e57fe5b81526020016006820154815260200160078201548152505081526020019060010190610343565b50505050905092915050565b6001602052816000526040600020602052806000526040600020600091509150505481565b81600073ffffffffffffffffffffffffffffffffffffffff1660008083815260200190815260200160002060010160009054906101000a900473ffffffffffffffffffffffffffffffffffffffff1673ffffffffffffffffffffffffffffffffffffffff16141561050c576040517f08c379a0000000000000000000000000000000000000000000000000000000008152600401610503906130d6565b60405180910390fd5b81600160003373ffffffffffffffffffffffffffffffffffffffff1673ffffffffffffffffffffffffffffffffffffffff168152602001908152602001600020600085815260200190815260200160002054101561059f576040517f08c379a000000000000000000000000000000000000000000000000000000000815260040161059690613116565b60405180910390fd5b61060282600160003373ffffffffffffffffffffffffffffffffffffffff1673ffffffffffffffffffffffffffffffffffffffff16815260200190815260200160002060008681526020019081526020016000205461264490919063ffffffff16565b600160003373ffffffffffffffffffffffffffffffffffffffff1673ffffffffffffffffffffffffffffffffffffffff16815260200190815260200160002060008581526020019081526020016000208190555060008084815260200190815260200160002060010160009054906101000a900473ffffffffffffffffffffffffffffffffffffffff1673ffffffffffffffffffffffffffffffffffffffff1663a9059cbb33846040518363ffffffff1660e01b81526004016106c692919061301e565b602060405180830381600087803b1580156106e057600080fd5b505af11580156106f4573d6000803e3d6000fd5b505050506040513d601f19601f8201168201806040525061071891908101906128bc565b50505050565b82600073ffffffffffffffffffffffffffffffffffffffff1660008083815260200190815260200160002060010160009054906101000a900473ffffffffffffffffffffffffffffffffffffffff1673ffffffffffffffffffffffffffffffffffffffff1614156107c4576040517f08c379a00000000000000000000000000000000000000000000000000000000081526004016107bb906130d6565b60405180910390fd5b837f4441490000000000000000000000000000000000000000000000000000000000811415610828576040517f08c379a000000000000000000000000000000000000000000000000000000000815260040161081f90613136565b60405180910390fd5b60018081111561083457fe5b83600181111561084057fe5b14156108da5783600160003373ffffffffffffffffffffffffffffffffffffffff1673ffffffffffffffffffffffffffffffffffffffff16815260200190815260200160002060008781526020019081526020016000205410156108d9576040517f08c379a00000000000000000000000000000000000000000000000000000000081526004016108d0906131b6565b60405180910390fd5b5b60006002600087815260200190815260200160002060006001808111156108fd57fe5b86600181111561090957fe5b14610915576001610918565b60005b600181111561092357fe5b815260200190815260200160002090506000808690505b82805490508210801561094d5750600081115b156115f55760006109a184848154811061096357fe5b90600052602060002090600802016004015485858154811061098157fe5b90600052602060002090600802016001015461264490919063ffffffff16565b905060008183116109b257826109b4565b815b90506109c9818461264490919063ffffffff16565b92506109fb818686815481106109db57fe5b90600052602060002090600802016004015461268e90919063ffffffff16565b858581548110610a0757fe5b9060005260206000209060080201600401819055503373ffffffffffffffffffffffffffffffffffffffff16858581548110610a3f57fe5b906000526020600020906008020160030160009054906101000a900473ffffffffffffffffffffffffffffffffffffffff1673ffffffffffffffffffffffffffffffffffffffff168b7fa690f2ee2b44ed450e2f16591a41643e320fcc8a9769fb74b1f1a406ac888e4f600554898981548110610ab857fe5b9060005260206000209060080201600001548a8a81548110610ad657fe5b9060005260206000209060080201600201548742604051610afb95949392919061326f565b60405180910390a4600180811115610b0f57fe5b886001811115610b1b57fe5b1415610fd057610b8481600160003373ffffffffffffffffffffffffffffffffffffffff1673ffffffffffffffffffffffffffffffffffffffff16815260200190815260200160002060008d81526020019081526020016000205461264490919063ffffffff16565b600160003373ffffffffffffffffffffffffffffffffffffffff1673ffffffffffffffffffffffffffffffffffffffff16815260200190815260200160002060008c815260200190815260200160002081905550610c8a610c0b868681548110610bea57fe5b906000526020600020906008020160020154836126e390919063ffffffff16565b600160003373ffffffffffffffffffffffffffffffffffffffff1673ffffffffffffffffffffffffffffffffffffffff16815260200190815260200160002060007f444149000000000000000000000000000000000000000000000000000000000081526020019081526020016000205461268e90919063ffffffff16565b600160003373ffffffffffffffffffffffffffffffffffffffff1673ffffffffffffffffffffffffffffffffffffffff16815260200190815260200160002060007f4441490000000000000000000000000000000000000000000000000000000000815260200190815260200160002081905550610d9e8160016000888881548110610d1257fe5b906000526020600020906008020160030160009054906101000a900473ffffffffffffffffffffffffffffffffffffffff1673ffffffffffffffffffffffffffffffffffffffff1673ffffffffffffffffffffffffffffffffffffffff16815260200190815260200160002060008d81526020019081526020016000205461268e90919063ffffffff16565b60016000878781548110610dae57fe5b906000526020600020906008020160030160009054906101000a900473ffffffffffffffffffffffffffffffffffffffff1673ffffffffffffffffffffffffffffffffffffffff1673ffffffffffffffffffffffffffffffffffffffff16815260200190815260200160002060008c815260200190815260200160002081905550610f1e610e62868681548110610e4157fe5b906000526020600020906008020160020154836126e390919063ffffffff16565b60016000888881548110610e7257fe5b906000526020600020906008020160030160009054906101000a900473ffffffffffffffffffffffffffffffffffffffff1673ffffffffffffffffffffffffffffffffffffffff1673ffffffffffffffffffffffffffffffffffffffff16815260200190815260200160002060007f444149000000000000000000000000000000000000000000000000000000000081526020019081526020016000205461264490919063ffffffff16565b60016000878781548110610f2e57fe5b906000526020600020906008020160030160009054906101000a900473ffffffffffffffffffffffffffffffffffffffff1673ffffffffffffffffffffffffffffffffffffffff1673ffffffffffffffffffffffffffffffffffffffff16815260200190815260200160002060007f44414900000000000000000000000000000000000000000000000000000000008152602001908152602001600020819055505b60006001811115610fdd57fe5b886001811115610fe957fe5b14156115bd5761101f858581548110610ffe57fe5b906000526020600020906008020160020154826126e390919063ffffffff16565b6001600087878154811061102f57fe5b906000526020600020906008020160030160009054906101000a900473ffffffffffffffffffffffffffffffffffffffff1673ffffffffffffffffffffffffffffffffffffffff1673ffffffffffffffffffffffffffffffffffffffff16815260200190815260200160002060007f4441490000000000000000000000000000000000000000000000000000000000815260200190815260200160002054101561110e576040517f08c379a000000000000000000000000000000000000000000000000000000000815260040161110590613176565b60405180910390fd5b61117181600160003373ffffffffffffffffffffffffffffffffffffffff1673ffffffffffffffffffffffffffffffffffffffff16815260200190815260200160002060008d81526020019081526020016000205461268e90919063ffffffff16565b600160003373ffffffffffffffffffffffffffffffffffffffff1673ffffffffffffffffffffffffffffffffffffffff16815260200190815260200160002060008c8152602001908152602001600020819055506112776111f88686815481106111d757fe5b906000526020600020906008020160020154836126e390919063ffffffff16565b600160003373ffffffffffffffffffffffffffffffffffffffff1673ffffffffffffffffffffffffffffffffffffffff16815260200190815260200160002060007f444149000000000000000000000000000000000000000000000000000000000081526020019081526020016000205461264490919063ffffffff16565b600160003373ffffffffffffffffffffffffffffffffffffffff1673ffffffffffffffffffffffffffffffffffffffff16815260200190815260200160002060007f444149000000000000000000000000000000000000000000000000000000000081526020019081526020016000208190555061138b81600160008888815481106112ff57fe5b906000526020600020906008020160030160009054906101000a900473ffffffffffffffffffffffffffffffffffffffff1673ffffffffffffffffffffffffffffffffffffffff1673ffffffffffffffffffffffffffffffffffffffff16815260200190815260200160002060008d81526020019081526020016000205461264490919063ffffffff16565b6001600087878154811061139b57fe5b906000526020600020906008020160030160009054906101000a900473ffffffffffffffffffffffffffffffffffffffff1673ffffffffffffffffffffffffffffffffffffffff1673ffffffffffffffffffffffffffffffffffffffff16815260200190815260200160002060008c81526020019081526020016000208190555061150b61144f86868154811061142e57fe5b906000526020600020906008020160020154836126e390919063ffffffff16565b6001600088888154811061145f57fe5b906000526020600020906008020160030160009054906101000a900473ffffffffffffffffffffffffffffffffffffffff1673ffffffffffffffffffffffffffffffffffffffff1673ffffffffffffffffffffffffffffffffffffffff16815260200190815260200160002060007f444149000000000000000000000000000000000000000000000000000000000081526020019081526020016000205461268e90919063ffffffff16565b6001600087878154811061151b57fe5b906000526020600020906008020160030160009054906101000a900473ffffffffffffffffffffffffffffffffffffffff1673ffffffffffffffffffffffffffffffffffffffff1673ffffffffffffffffffffffffffffffffffffffff16815260200190815260200160002060007f44414900000000000000000000000000000000000000000000000000000000008152602001908152602001600020819055505b6115d3600160055461268e90919063ffffffff16565b6005819055506115ed60018561268e90919063ffffffff16565b50505061093a565b600091505b82828154811061160657fe5b90600052602060002090600802016001015483838154811061162457fe5b9060005260206000209060080201600401541480156116465750828054905082105b156118295760008290505b60018480549050038110156117805783600182018154811061166f57fe5b906000526020600020906008020184828154811061168957fe5b90600052602060002090600802016000820154816000015560018201548160010155600282015481600201556003820160009054906101000a900473ffffffffffffffffffffffffffffffffffffffff168160030160006101000a81548173ffffffffffffffffffffffffffffffffffffffff021916908373ffffffffffffffffffffffffffffffffffffffff160217905550600482015481600401556005820160009054906101000a900460ff168160050160006101000a81548160ff0219169083600181111561175757fe5b021790555060068201548160060155600782015481600701559050508080600101915050611651565b508280548061178b57fe5b6001900381819060005260206000209060080201600080820160009055600182016000905560028201600090556003820160006101000a81549073ffffffffffffffffffffffffffffffffffffffff021916905560048201600090556005820160006101000a81549060ff0219169055600682016000905560078201600090555050905561182360018361268e90919063ffffffff16565b506115fa565b5050505050505050565b60055481565b60006020528060005260406000206000915090508060000154908060010160009054906101000a900473ffffffffffffffffffffffffffffffffffffffff16905082565b600360009054906101000a900473ffffffffffffffffffffffffffffffffffffffff1673ffffffffffffffffffffffffffffffffffffffff163373ffffffffffffffffffffffffffffffffffffffff161461190d576040517f08c379a000000000000000000000000000000000000000000000000000000000815260040161190490613196565b60405180910390fd5b60405180604001604052808381526020018273ffffffffffffffffffffffffffffffffffffffff168152506000808481526020019081526020016000206000820151816000015560208201518160010160006101000a81548173ffffffffffffffffffffffffffffffffffffffff021916908373ffffffffffffffffffffffffffffffffffffffff160217905550905050600660405180604001604052808481526020018373ffffffffffffffffffffffffffffffffffffffff1681525090806001815401808255809150506001900390600052602060002090600202016000909190919091506000820151816000015560208201518160010160006101000a81548173ffffffffffffffffffffffffffffffffffffffff021916908373ffffffffffffffffffffffffffffffffffffffff16021790555050505050565b60068181548110611a5857fe5b90600052602060002090600202016000915090508060000154908060010160009054906101000a900473ffffffffffffffffffffffffffffffffffffffff16905082565b60606006805480602002602001604051908101604052809291908181526020016000905b82821015611b525783829060005260206000209060020201604051806040016040529081600082015481526020016001820160009054906101000a900473ffffffffffffffffffffffffffffffffffffffff1673ffffffffffffffffffffffffffffffffffffffff1673ffffffffffffffffffffffffffffffffffffffff168152505081526020019060010190611ac0565b50505050905090565b80600073ffffffffffffffffffffffffffffffffffffffff1660008083815260200190815260200160002060010160009054906101000a900473ffffffffffffffffffffffffffffffffffffffff1673ffffffffffffffffffffffffffffffffffffffff161415611c01576040517f08c379a0000000000000000000000000000000000000000000000000000000008152600401611bf8906130d6565b60405180910390fd5b60008083815260200190815260200160002060010160009054906101000a900473ffffffffffffffffffffffffffffffffffffffff1673ffffffffffffffffffffffffffffffffffffffff166323b872dd3330866040518463ffffffff1660e01b8152600401611c7393929190612fe7565b602060405180830381600087803b158015611c8d57600080fd5b505af1158015611ca1573d6000803e3d6000fd5b505050506040513d601f19601f82011682018060405250611cc591908101906128bc565b50611d2983600160003373ffffffffffffffffffffffffffffffffffffffff1673ffffffffffffffffffffffffffffffffffffffff16815260200190815260200160002060008581526020019081526020016000205461268e90919063ffffffff16565b600160003373ffffffffffffffffffffffffffffffffffffffff1673ffffffffffffffffffffffffffffffffffffffff168152602001908152602001600020600084815260200190815260200160002081905550505050565b83600073ffffffffffffffffffffffffffffffffffffffff1660008083815260200190815260200160002060010160009054906101000a900473ffffffffffffffffffffffffffffffffffffffff1673ffffffffffffffffffffffffffffffffffffffff161415611e28576040517f08c379a0000000000000000000000000000000000000000000000000000000008152600401611e1f906130d6565b60405180910390fd5b847f4441490000000000000000000000000000000000000000000000000000000000811415611e8c576040517f08c379a0000000000000000000000000000000000000000000000000000000008152600401611e8390613136565b60405180910390fd5b600180811115611e9857fe5b836001811115611ea457fe5b1415611f425784600160003373ffffffffffffffffffffffffffffffffffffffff1673ffffffffffffffffffffffffffffffffffffffff1681526020019081526020016000206000888152602001908152602001600020541015611f3d576040517f08c379a0000000000000000000000000000000000000000000000000000000008152600401611f34906131b6565b60405180910390fd5b612008565b611f5584866126e390919063ffffffff16565b600160003373ffffffffffffffffffffffffffffffffffffffff1673ffffffffffffffffffffffffffffffffffffffff16815260200190815260200160002060007f44414900000000000000000000000000000000000000000000000000000000008152602001908152602001600020541015612007576040517f08c379a0000000000000000000000000000000000000000000000000000000008152600401611ffe90613176565b60405180910390fd5b5b600060026000888152602001908152602001600020600085600181111561202b57fe5b815260200190815260200160002090508060405180610100016040528060045481526020018881526020018781526020013373ffffffffffffffffffffffffffffffffffffffff1681526020016000815260200186600181111561208b57fe5b815260200189815260200142815250908060018154018082558091505060019003906000526020600020906008020160009091909190915060008201518160000155602082015181600101556040820151816002015560608201518160030160006101000a81548173ffffffffffffffffffffffffffffffffffffffff021916908373ffffffffffffffffffffffffffffffffffffffff1602179055506080820151816004015560a08201518160050160006101000a81548160ff0219169083600181111561215657fe5b021790555060c0820151816006015560e08201518160070155505060008082805490501161218557600061218e565b60018280549050035b90505b600081111561255c57600060018111156121a757fe5b8560018111156121b357fe5b1480156121fc57508181815481106121c757fe5b9060005260206000209060080201600201548260018303815481106121e857fe5b906000526020600020906008020160020154115b156122065761255c565b60018081111561221257fe5b85600181111561221e57fe5b148015612267575081818154811061223257fe5b90600052602060002090600802016002015482600183038154811061225357fe5b906000526020600020906008020160020154105b156122715761255c565b6122796127ae565b82600183038154811061228857fe5b9060005260206000209060080201604051806101000160405290816000820154815260200160018201548152602001600282015481526020016003820160009054906101000a900473ffffffffffffffffffffffffffffffffffffffff1673ffffffffffffffffffffffffffffffffffffffff1673ffffffffffffffffffffffffffffffffffffffff168152602001600482015481526020016005820160009054906101000a900460ff16600181111561233e57fe5b600181111561234957fe5b815260200160068201548152602001600782015481525050905082828154811061236f57fe5b906000526020600020906008020183600184038154811061238c57fe5b90600052602060002090600802016000820154816000015560018201548160010155600282015481600201556003820160009054906101000a900473ffffffffffffffffffffffffffffffffffffffff168160030160006101000a81548173ffffffffffffffffffffffffffffffffffffffff021916908373ffffffffffffffffffffffffffffffffffffffff160217905550600482015481600401556005820160009054906101000a900460ff168160050160006101000a81548160ff0219169083600181111561245a57fe5b021790555060068201548160060155600782015481600701559050508083838154811061248357fe5b906000526020600020906008020160008201518160000155602082015181600101556040820151816002015560608201518160030160006101000a81548173ffffffffffffffffffffffffffffffffffffffff021916908373ffffffffffffffffffffffffffffffffffffffff1602179055506080820151816004015560a08201518160050160006101000a81548160ff0219169083600181111561252457fe5b021790555060c0820151816006015560e0820151816007015590505061255460018361264490919063ffffffff16565b915050612191565b612572600160045461268e90919063ffffffff16565b6004819055505050505050505050565b600260205282600052604060002060205281600052604060002081815481106125a757fe5b906000526020600020906008020160009250925050508060000154908060010154908060020154908060030160009054906101000a900473ffffffffffffffffffffffffffffffffffffffff16908060040154908060050160009054906101000a900460ff16908060060154908060070154905088565b600360009054906101000a900473ffffffffffffffffffffffffffffffffffffffff1681565b600061268683836040518060400160405280601e81526020017f536166654d6174683a207375627472616374696f6e206f766572666c6f770000815250612753565b905092915050565b6000808284019050838110156126d9576040517f08c379a00000000000000000000000000000000000000000000000000000000081526004016126d0906130f6565b60405180910390fd5b8091505092915050565b6000808314156126f6576000905061274d565b600082840290508284828161270757fe5b0414612748576040517f08c379a000000000000000000000000000000000000000000000000000000000815260040161273f90613156565b60405180910390fd5b809150505b92915050565b600083831115829061279b576040517f08c379a000000000000000000000000000000000000000000000000000000000815260040161279291906130b4565b60405180910390fd5b5060008385039050809150509392505050565b604051806101000160405280600081526020016000815260200160008152602001600073ffffffffffffffffffffffffffffffffffffffff168152602001600081526020016000600181111561280057fe5b815260200160008019168152602001600081525090565b6000813590506128268161344e565b92915050565b60008151905061283b81613465565b92915050565b6000813590506128508161347c565b92915050565b60008135905061286581613493565b92915050565b60008135905061287a816134a3565b92915050565b6000806040838503121561289357600080fd5b60006128a185828601612817565b92505060206128b285828601612841565b9150509250929050565b6000602082840312156128ce57600080fd5b60006128dc8482850161282c565b91505092915050565b6000602082840312156128f757600080fd5b600061290584828501612841565b91505092915050565b6000806040838503121561292157600080fd5b600061292f85828601612841565b925050602061294085828601612817565b9150509250929050565b6000806040838503121561295d57600080fd5b600061296b85828601612841565b925050602061297c85828601612856565b9150509250929050565b6000806040838503121561299957600080fd5b60006129a785828601612841565b92505060206129b88582860161286b565b9150509250929050565b6000806000606084860312156129d757600080fd5b60006129e586828701612841565b93505060206129f68682870161286b565b9250506040612a0786828701612856565b9150509250925092565b600080600060608486031215612a2657600080fd5b6000612a3486828701612841565b9350506020612a458682870161286b565b9250506040612a568682870161286b565b9150509250925092565b60008060008060808587031215612a7657600080fd5b6000612a8487828801612841565b9450506020612a958782880161286b565b9350506040612aa68782880161286b565b9250506060612ab787828801612856565b91505092959194509250565b600060208284031215612ad557600080fd5b6000612ae38482850161286b565b91505092915050565b60008060408385031215612aff57600080fd5b6000612b0d8582860161286b565b9250506020612b1e85828601612841565b9150509250929050565b6000612b348383612edd565b6101008301905092915050565b6000612b4d8383612f7f565b60408301905092915050565b612b62816133b5565b82525050565b612b7181613350565b82525050565b612b8081613350565b82525050565b6000612b91826132e2565b612b9b818561331d565b9350612ba6836132c2565b8060005b83811015612bd7578151612bbe8882612b28565b9750612bc983613303565b925050600181019050612baa565b5085935050505092915050565b6000612bef826132ed565b612bf9818561332e565b9350612c04836132d2565b8060005b83811015612c35578151612c1c8882612b41565b9750612c2783613310565b925050600181019050612c08565b5085935050505092915050565b612c4b8161336e565b82525050565b612c5a8161336e565b82525050565b612c69816133c7565b82525050565b612c78816133c7565b82525050565b6000612c89826132f8565b612c93818561333f565b9350612ca38185602086016133fd565b612cac81613430565b840191505092915050565b6000612cc460138361333f565b91507f546f6b656e20646f65736e6f74206578697374000000000000000000000000006000830152602082019050919050565b6000612d04601b8361333f565b91507f536166654d6174683a206164646974696f6e206f766572666c6f7700000000006000830152602082019050919050565b6000612d4460148361333f565b91507f496e73756666696369656e742062616c616e63650000000000000000000000006000830152602082019050919050565b6000612d8460148361333f565b91507f4441492063616e6e6f74206265207472616465640000000000000000000000006000830152602082019050919050565b6000612dc460218361333f565b91507f536166654d6174683a206d756c7469706c69636174696f6e206f766572666c6f60008301527f77000000000000000000000000000000000000000000000000000000000000006020830152604082019050919050565b6000612e2a60188361333f565b91507f496e73756666696369656e74204441492062616c616e636500000000000000006000830152602082019050919050565b6000612e6a60128361333f565b91507f4f6e6c792041646d696e20416c6c6f77656400000000000000000000000000006000830152602082019050919050565b6000612eaa601a8361333f565b91507f496e73756666696369656e7420546f6b656e2042616c616e63650000000000006000830152602082019050919050565b61010082016000820151612ef46000850182612fae565b506020820151612f076020850182612fae565b506040820151612f1a6040850182612fae565b506060820151612f2d6060850182612b68565b506080820151612f406080850182612fae565b5060a0820151612f5360a0850182612c60565b5060c0820151612f6660c0850182612c42565b5060e0820151612f7960e0850182612fae565b50505050565b604082016000820151612f956000850182612c42565b506020820151612fa86020850182612b68565b50505050565b612fb7816133ab565b82525050565b612fc6816133ab565b82525050565b6000602082019050612fe16000830184612b77565b92915050565b6000606082019050612ffc6000830186612b59565b6130096020830185612b77565b6130166040830184612fbd565b949350505050565b60006040820190506130336000830185612b59565b6130406020830184612fbd565b9392505050565b600060208201905081810360008301526130618184612b86565b905092915050565b600060208201905081810360008301526130838184612be4565b905092915050565b60006040820190506130a06000830185612c51565b6130ad6020830184612b77565b9392505050565b600060208201905081810360008301526130ce8184612c7e565b905092915050565b600060208201905081810360008301526130ef81612cb7565b9050919050565b6000602082019050818103600083015261310f81612cf7565b9050919050565b6000602082019050818103600083015261312f81612d37565b9050919050565b6000602082019050818103600083015261314f81612d77565b9050919050565b6000602082019050818103600083015261316f81612db7565b9050919050565b6000602082019050818103600083015261318f81612e1d565b9050919050565b600060208201905081810360008301526131af81612e5d565b9050919050565b600060208201905081810360008301526131cf81612e9d565b9050919050565b60006020820190506131eb6000830184612fbd565b92915050565b600061010082019050613207600083018b612fbd565b613214602083018a612fbd565b6132216040830189612fbd565b61322e6060830188612b77565b61323b6080830187612fbd565b61324860a0830186612c6f565b61325560c0830185612c51565b61326260e0830184612fbd565b9998505050505050505050565b600060a0820190506132846000830188612fbd565b6132916020830187612fbd565b61329e6040830186612fbd565b6132ab6060830185612fbd565b6132b86080830184612fbd565b9695505050505050565b6000819050602082019050919050565b6000819050602082019050919050565b600081519050919050565b600081519050919050565b600081519050919050565b6000602082019050919050565b6000602082019050919050565b600082825260208201905092915050565b600082825260208201905092915050565b600082825260208201905092915050565b600061335b8261338b565b9050919050565b60008115159050919050565b6000819050919050565b600081905061338682613441565b919050565b600073ffffffffffffffffffffffffffffffffffffffff82169050919050565b6000819050919050565b60006133c0826133d9565b9050919050565b60006133d282613378565b9050919050565b60006133e4826133eb565b9050919050565b60006133f68261338b565b9050919050565b60005b8381101561341b578082015181840152602081019050613400565b8381111561342a576000848401525b50505050565b6000601f19601f8301169050919050565b6002811061344b57fe5b50565b61345781613350565b811461346257600080fd5b50565b61346e81613362565b811461347957600080fd5b50565b6134858161336e565b811461349057600080fd5b50565b600281106134a057600080fd5b50565b6134ac816133ab565b81146134b757600080fd5b5056fea2646970667358221220ee15941e16d3eeffe19817554c98e390d5501b93d329d8f42298b8b21bf1904764736f6c63430006030033",
  "source": "pragma solidity ^0.6.3;\r\npragma experimental ABIEncoderV2;\r\n\r\n\r\nimport '@openzeppelin/contracts/token/ERC20/IERC20.sol';\r\nimport '@openzeppelin/contracts/math/SafeMath.sol';\r\n\r\ncontract Dex{\r\n    using SafeMath for uint;\r\n    \r\n    // state variables\r\n    enum Side {BUY,SELL}\r\n    \r\n      // collection of tokens\r\n    mapping(bytes32=>Token) public tokens;\r\n    // a mapping to hold balances of traders and their tokens\r\n    mapping(address=>mapping(bytes32=>uint))public  traderBalances;\r\n    // mapping to keep track of orders i.e orderbook\r\n    mapping(bytes32=>mapping(uint=>Order[])) public orderbook;\r\n  \r\n    address public admin;\r\n    uint public nextOrderId;\r\n    uint public nextTradeId;\r\n    bytes32 constant DAI=bytes32('DAI');\r\n    \r\n    \r\n    // a struct to represent erc20  tokens\r\n    struct Token{\r\n        bytes32 ticker;\r\n        address tokenAddress;\r\n    }\r\n      // a list of tokens which we can iterate through\r\n    Token[] public tokenList;\r\n    \r\n    // a struct to represent orders\r\n    struct Order{\r\n        uint id;\r\n        uint amount;\r\n        uint price;\r\n        address trader;\r\n        uint filled;\r\n        Side side;\r\n        bytes32 ticker;\r\n        uint date;\r\n    }\r\n    \r\n    // event to be fired when a trade occurs\r\n    event NewTrade(\r\n        uint tradeId,\r\n        uint orderId,\r\n        bytes32 indexed ticker, \r\n        uint price,\r\n        uint amount,\r\n        address indexed  trader1,\r\n        address indexed trader2,\r\n        uint date\r\n        );\r\n    \r\n  \r\n    \r\n    // constructor\r\n    constructor() public {\r\n        admin=msg.sender;\r\n    }\r\n    \r\n    // modifiers\r\n    modifier onlyAdmin() {\r\n        require(msg.sender==admin,'Only Admin Allowed');\r\n        _;\r\n    }\r\n    \r\n    // modifier to check if given token exist \r\n    modifier tokenExist (bytes32 _ticker){\r\n        require(tokens[_ticker].tokenAddress!=address(0),'Token doesnot exist');\r\n        _;\r\n    }\r\n    \r\n    // modifier to check token is not DAI\r\n    modifier tokenIsNotDai(bytes32 _ticker) {\r\n        require(_ticker!=bytes32('DAI'),'DAI cannot be traded');\r\n        _;\r\n    }\r\n    \r\n    \r\n    // normal functions\r\n\r\n    \r\n    \r\n    // a function to add tokens to the dex\r\n    function addToken(bytes32 _ticker ,address _tokenAddress) onlyAdmin()  external  {\r\n        // add the new token to the mapping \r\n        \r\n        tokens[_ticker]=Token({\r\n                               ticker:_ticker,\r\n                            tokenAddress: _tokenAddress\r\n                              });\r\n                              \r\n        // add token to the token list\r\n        tokenList.push(Token({\r\n                               ticker:_ticker,\r\n                            tokenAddress: _tokenAddress\r\n                              }));\r\n                              \r\n    }\r\n    \r\n    // a function to deposit tokens to the dex\r\n    function depositTokens(uint _amount, bytes32 _ticker)tokenExist(_ticker) external {\r\n        // send the token to the contract\r\n        \r\n        IERC20(tokens[_ticker].tokenAddress).transferFrom(\r\n            msg.sender,\r\n            address(this),\r\n            _amount\r\n            );\r\n            \r\n            // update the balance of the sender balance for that erc20 token\r\n            traderBalances[msg.sender][_ticker]=traderBalances[msg.sender][_ticker].add(_amount);\r\n        \r\n    }\r\n    \r\n    // a function to withdraw erc20 tokens from the contract\r\n    function withdrawToken(bytes32 _ticker , uint _amount) tokenExist(_ticker) external {\r\n        \r\n        // check if user has sufficient balance to withdraw\r\n        require(traderBalances[msg.sender][_ticker]>=_amount,'Insufficient balance');\r\n        \r\n        // if user has sufficient balance , deduct the erc20 token balance \r\n        traderBalances[msg.sender][_ticker]=traderBalances[msg.sender][_ticker].sub(_amount);\r\n        \r\n        // send the actual erc20 token from contract to the withdrawer address\r\n        IERC20(tokens[_ticker].tokenAddress).transfer(\r\n            msg.sender,\r\n            _amount\r\n            );\r\n    }\r\n    \r\n    // function to create limit order\r\n    function createLimitOrder (bytes32 _ticker,uint _amount, uint _price , Side _side)  tokenExist(_ticker) tokenIsNotDai(_ticker) external{\r\n       \r\n        \r\n        // if its a sell order , check that the trader has enough tokens to sell\r\n        if(_side==Side.SELL)\r\n        {\r\n            require(traderBalances[msg.sender][_ticker]>=_amount,'Insufficient Token Balance');\r\n        }\r\n        else\r\n        {\r\n            require(traderBalances[msg.sender][DAI]>=(_amount.mul(_price)),'Insufficient DAI balance');\r\n        }\r\n        \r\n        Order[] storage orders=orderbook[_ticker][uint(_side)];\r\n        \r\n        orders.push(Order(\r\n             nextOrderId,\r\n         _amount,\r\n         _price,\r\n         msg.sender,\r\n           0,\r\n         _side,\r\n         _ticker,\r\n        now\r\n            ));\r\n            \r\n            uint i=orders.length>0? orders.length-1:0;\r\n            \r\n            // using bubble sort  to get the orderbook in correct order\r\n            while(i>0){\r\n                if(_side==Side.BUY  && orders[i-1].price >orders[i].price){\r\n                    break;\r\n                }\r\n                \r\n                if(_side==Side.SELL && orders[i-1].price < orders[i].price){\r\n                    break;\r\n                    \r\n                }\r\n                \r\n               // swap the ith and i-1th element\r\n               Order memory temp=orders[i-1];\r\n               orders[i-1]=orders[i];\r\n               orders[i]=temp;\r\n               i=i.sub(1);\r\n            }\r\n            \r\n            // increment the nextOrderId\r\n            \r\n            nextOrderId=nextOrderId.add(1);\r\n    }\r\n    \r\n    // a function to create market orders\r\n    function createMarketOrder(\r\n        bytes32 _ticker,\r\n        uint _amount,\r\n        Side _side) external tokenExist(_ticker)  tokenIsNotDai(_ticker){\r\n            \r\n            // if order is sell order , check that user has sufficient funds\r\n            if(_side==Side.SELL){\r\n            require(traderBalances[msg.sender][_ticker]>=_amount,'Insufficient Token Balance');\r\n            }\r\n            \r\n            // matching market sell orders to limit buy offers and market buy orders to limit sell orders\r\n            Order[] storage  orders=orderbook[_ticker][uint(_side==Side.SELL?Side.BUY:Side.SELL)];\r\n            uint i;\r\n            uint remaining=_amount;\r\n            // iterating through orderbook to match the market order\r\n            while(i<orders.length && remaining>0){\r\n                // check which amount of given order is available to be matched\r\n                uint available=orders[i].amount.sub(orders[i].filled);\r\n                // if available amount of order > provided limit order , limit order gets fully matched otherwise it gets partially matched\r\n                uint matched=(remaining>available)?available:remaining;\r\n                remaining= remaining.sub(matched);\r\n                orders[i].filled = orders[i].filled.add(matched);\r\n                // emit the new trade event\r\n                emit NewTrade(\r\n                     nextTradeId,\r\n                     orders[i].id,\r\n                     _ticker, \r\n                    orders[i].price,\r\n                     matched,\r\n                     orders[i].trader,\r\n                    msg.sender,\r\n                    now\r\n                    );\r\n                    \r\n                    // updating balances in case of sell orders\r\n                    if(_side==Side.SELL){\r\n                    traderBalances[msg.sender][_ticker] = traderBalances[msg.sender][_ticker].sub(matched);\r\n                    traderBalances[msg.sender][DAI]=traderBalances[msg.sender][DAI].add(matched.mul(orders[i].price));\r\n                    traderBalances[orders[i].trader][_ticker]=traderBalances[orders[i].trader][_ticker].add(matched);\r\n                    traderBalances[orders[i].trader][DAI]=traderBalances[orders[i].trader][DAI].sub(matched.mul(orders[i].price));\r\n                    }\r\n                    if(_side==Side.BUY)\r\n                    {\r\n                        // check that trader has sufficient DAI to pay\r\n                    require(traderBalances[orders[i].trader][DAI]>= matched.mul(orders[i].price),'Insufficient DAI balance');\r\n                    traderBalances[msg.sender][_ticker]=traderBalances[msg.sender][_ticker].add(matched);\r\n                    traderBalances[msg.sender][DAI]=traderBalances[msg.sender][DAI].sub(matched.mul(orders[i].price));\r\n                    traderBalances[orders[i].trader][_ticker]=traderBalances[orders[i].trader][_ticker].sub(matched);\r\n                    traderBalances[orders[i].trader][DAI]=traderBalances[orders[i].trader][DAI].add(matched.mul(orders[i].price)); \r\n                    }\r\n                    \r\n                    nextTradeId=nextTradeId.add(1);\r\n                    i.add(1);\r\n            }\r\n                    \r\n                    // updating the orderbook by removing the fulfilled orders\r\n                    i=0;\r\n                    while(orders[i].filled==orders[i].amount  && i<orders.length ){\r\n                        \r\n                        for(uint j=i;j<orders.length-1;j++){\r\n                            orders[j]=orders[j+1];\r\n                        }\r\n                        orders.pop();\r\n                        i.add(1);\r\n                    }   \r\n        }\r\n    \r\n    // a function to get orders for buy or sell for a particular token\r\n    \r\n    function getOrders (bytes32 _ticker, Side _side) external view  returns (Order[]memory){\r\n        return orderbook[_ticker][uint(_side)];\r\n    }\r\n    \r\n    // a function to get list of tokens that can be traded at the dex\r\n    function listTradeTokens() external view returns(Token[] memory){\r\n      return tokenList;\r\n    }\r\n    \r\n}",
  "sourcePath": "C:/Users/Abhishek/Desktop/web dev/JS_INTERVIEW/REACTJS/PROJECT1/EAT_THE_BLOCKS/eth_dex/contracts/Dex.sol",
  "compiler": {
    "name": "solc",
    "version": "0.6.3+commit.8dda9521.Emscripten.clang"
  },
  "schemaVersion": "3.3.1",
  "updatedAt": "2020-11-24T08:04:46.867Z",
  "networkType": "ethereum",
  "devdoc": {
    "methods": {}
  },
  "userdoc": {
    "methods": {}
  }
}